{
  "contractName": "Faucet",
  "abi": [
    {
      "inputs": [
        {
          "internalType": "uint256",
          "name": "",
          "type": "uint256"
        }
      ],
      "name": "admins",
      "outputs": [
        {
          "internalType": "address",
          "name": "",
          "type": "address"
        }
      ],
      "stateMutability": "view",
      "type": "function",
      "constant": true
    },
    {
      "inputs": [
        {
          "internalType": "address",
          "name": "",
          "type": "address"
        }
      ],
      "name": "funders",
      "outputs": [
        {
          "internalType": "bool",
          "name": "",
          "type": "bool"
        }
      ],
      "stateMutability": "view",
      "type": "function",
      "constant": true
    },
    {
      "inputs": [
        {
          "internalType": "uint256",
          "name": "",
          "type": "uint256"
        }
      ],
      "name": "lutFunders",
      "outputs": [
        {
          "internalType": "address",
          "name": "",
          "type": "address"
        }
      ],
      "stateMutability": "view",
      "type": "function",
      "constant": true
    },
    {
      "inputs": [],
      "name": "numOfFunders",
      "outputs": [
        {
          "internalType": "uint256",
          "name": "",
          "type": "uint256"
        }
      ],
      "stateMutability": "view",
      "type": "function",
      "constant": true
    },
    {
      "inputs": [],
      "name": "owner",
      "outputs": [
        {
          "internalType": "address",
          "name": "",
          "type": "address"
        }
      ],
      "stateMutability": "view",
      "type": "function",
      "constant": true
    },
    {
      "inputs": [],
      "name": "test3",
      "outputs": [
        {
          "internalType": "uint256",
          "name": "",
          "type": "uint256"
        }
      ],
      "stateMutability": "pure",
      "type": "function",
      "constant": true
    },
    {
      "inputs": [
        {
          "internalType": "address",
          "name": "newOwner",
          "type": "address"
        }
      ],
      "name": "transferOwnership",
      "outputs": [],
      "stateMutability": "nonpayable",
      "type": "function"
    },
    {
      "stateMutability": "payable",
      "type": "receive",
      "payable": true
    },
    {
      "inputs": [],
      "name": "emitLog",
      "outputs": [
        {
          "internalType": "bytes32",
          "name": "",
          "type": "bytes32"
        }
      ],
      "stateMutability": "pure",
      "type": "function",
      "constant": true
    },
    {
      "inputs": [],
      "name": "addFunds",
      "outputs": [],
      "stateMutability": "payable",
      "type": "function",
      "payable": true
    },
    {
      "inputs": [
        {
          "internalType": "uint256",
          "name": "withdrawAmount",
          "type": "uint256"
        }
      ],
      "name": "withdrawFunds",
      "outputs": [],
      "stateMutability": "nonpayable",
      "type": "function"
    },
    {
      "inputs": [],
      "name": "getAllFunders",
      "outputs": [
        {
          "internalType": "address[]",
          "name": "",
          "type": "address[]"
        }
      ],
      "stateMutability": "view",
      "type": "function",
      "constant": true
    },
    {
      "inputs": [
        {
          "internalType": "uint256",
          "name": "index",
          "type": "uint256"
        }
      ],
      "name": "getFunderAtIndex",
      "outputs": [
        {
          "internalType": "address",
          "name": "",
          "type": "address"
        }
      ],
      "stateMutability": "view",
      "type": "function",
      "constant": true
    }
  ],
  "bytecode": "0x60806040526040518060400160405280738c0e055ca0e597df9755a65e3ded35b20ec49fe773ffffffffffffffffffffffffffffffffffffffff1673ffffffffffffffffffffffffffffffffffffffff168152602001732c5547ec5841ec00477b3b18d3dbcf6090bc255b73ffffffffffffffffffffffffffffffffffffffff1673ffffffffffffffffffffffffffffffffffffffff1681525060029060026100a9929190610105565b503480156100b657600080fd5b50336000806101000a81548173ffffffffffffffffffffffffffffffffffffffff021916908373ffffffffffffffffffffffffffffffffffffffff1602179055506103e86001819055506101ac565b82805482825590600052602060002090810192821561017e579160200282015b8281111561017d5782518260006101000a81548173ffffffffffffffffffffffffffffffffffffffff021916908373ffffffffffffffffffffffffffffffffffffffff16021790555091602001919060010190610125565b5b50905061018b919061018f565b5090565b5b808211156101a8576000816000905550600101610190565b5090565b610cca806101bb6000396000f3fe6080604052600436106100ab5760003560e01c80638da5cb5b116100645780638da5cb5b146101ed578063a26759cb14610218578063af7f2c9b14610222578063c218deca1461024d578063f2fde38b1461028a578063f42c13bf146102b3576100b2565b8063031b3677146100b75780630a8e8e01146100f457806314bfd6d01461011f578063155dd5ee1461015c5780631f8947ea146101855780636fbbb55d146101c2576100b2565b366100b257005b600080fd5b3480156100c357600080fd5b506100de60048036038101906100d9919061091f565b6102de565b6040516100eb9190610a92565b60405180910390f35b34801561010057600080fd5b506101096102fe565b6040516101169190610ae8565b60405180910390f35b34801561012b57600080fd5b5061014660048036038101906101419190610948565b610307565b6040516101539190610a55565b60405180910390f35b34801561016857600080fd5b50610183600480360381019061017e9190610948565b610346565b005b34801561019157600080fd5b506101ac60048036038101906101a79190610948565b610532565b6040516101b99190610a55565b60405180910390f35b3480156101ce57600080fd5b506101d7610565565b6040516101e49190610a70565b60405180910390f35b3480156101f957600080fd5b506102026106ab565b60405161020f9190610a55565b60405180910390f35b6102206106cf565b005b34801561022e57600080fd5b506102376107ef565b6040516102449190610ae8565b60405180910390f35b34801561025957600080fd5b50610274600480360381019061026f9190610948565b6107f5565b6040516102819190610a55565b60405180910390f35b34801561029657600080fd5b506102b160048036038101906102ac919061091f565b610832565b005b3480156102bf57600080fd5b506102c86108cd565b6040516102d59190610aad565b60405180910390f35b60046020528060005260406000206000915054906101000a900460ff1681565b60006064905090565b6002818154811061031757600080fd5b906000526020600020016000915054906101000a900473ffffffffffffffffffffffffffffffffffffffff1681565b80670de0b6b3a7640000811115610392576040517f08c379a000000000000000000000000000000000000000000000000000000000815260040161038990610ac8565b60405180910390fd5b600060026000815481106103cf577f4e487b7100000000000000000000000000000000000000000000000000000000600052603260045260246000fd5b9060005260206000200160009054906101000a900473ffffffffffffffffffffffffffffffffffffffff1673ffffffffffffffffffffffffffffffffffffffff163373ffffffffffffffffffffffffffffffffffffffff16141561043657600190506104d5565b6002600181548110610471577f4e487b7100000000000000000000000000000000000000000000000000000000600052603260045260246000fd5b9060005260206000200160009054906101000a900473ffffffffffffffffffffffffffffffffffffffff1673ffffffffffffffffffffffffffffffffffffffff163373ffffffffffffffffffffffffffffffffffffffff1614156104d457600190505b5b60011515811515146104e657600080fd5b3373ffffffffffffffffffffffffffffffffffffffff166108fc849081150290604051600060405180830381858888f1935050505015801561052c573d6000803e3d6000fd5b50505050565b60056020528060005260406000206000915054906101000a900473ffffffffffffffffffffffffffffffffffffffff1681565b6060600060035467ffffffffffffffff8111156105ab577f4e487b7100000000000000000000000000000000000000000000000000000000600052604160045260246000fd5b6040519080825280602002602001820160405280156105d95781602001602082028036833780820191505090505b50905060005b6003548110156106a3576005600082815260200190815260200160002060009054906101000a900473ffffffffffffffffffffffffffffffffffffffff16828281518110610656577f4e487b7100000000000000000000000000000000000000000000000000000000600052603260045260246000fd5b602002602001019073ffffffffffffffffffffffffffffffffffffffff16908173ffffffffffffffffffffffffffffffffffffffff1681525050808061069b90610b9f565b9150506105df565b508091505090565b60008054906101000a900473ffffffffffffffffffffffffffffffffffffffff1681565b6000339050600460008273ffffffffffffffffffffffffffffffffffffffff1673ffffffffffffffffffffffffffffffffffffffff16815260200190815260200160002060009054906101000a900460ff166107ec5760006003600081548092919061073a90610b9f565b9190505590506001600460008473ffffffffffffffffffffffffffffffffffffffff1673ffffffffffffffffffffffffffffffffffffffff16815260200190815260200160002060006101000a81548160ff021916908315150217905550816005600083815260200190815260200160002060006101000a81548173ffffffffffffffffffffffffffffffffffffffff021916908373ffffffffffffffffffffffffffffffffffffffff160217905550505b50565b60035481565b60006005600083815260200190815260200160002060009054906101000a900473ffffffffffffffffffffffffffffffffffffffff169050919050565b60008054906101000a900473ffffffffffffffffffffffffffffffffffffffff1673ffffffffffffffffffffffffffffffffffffffff163373ffffffffffffffffffffffffffffffffffffffff161461088a57600080fd5b806000806101000a81548173ffffffffffffffffffffffffffffffffffffffff021916908373ffffffffffffffffffffffffffffffffffffffff16021790555050565b60007f53746566616e0000000000000000000000000000000000000000000000000000905090565b60008135905061090481610c66565b92915050565b60008135905061091981610c7d565b92915050565b60006020828403121561093157600080fd5b600061093f848285016108f5565b91505092915050565b60006020828403121561095a57600080fd5b60006109688482850161090a565b91505092915050565b600061097d8383610989565b60208301905092915050565b61099281610b4d565b82525050565b6109a181610b4d565b82525050565b60006109b282610b13565b6109bc8185610b2b565b93506109c783610b03565b8060005b838110156109f85781516109df8882610971565b97506109ea83610b1e565b9250506001810190506109cb565b5085935050505092915050565b610a0e81610b5f565b82525050565b610a1d81610b6b565b82525050565b6000610a30602283610b3c565b9150610a3b82610c17565b604082019050919050565b610a4f81610b95565b82525050565b6000602082019050610a6a6000830184610998565b92915050565b60006020820190508181036000830152610a8a81846109a7565b905092915050565b6000602082019050610aa76000830184610a05565b92915050565b6000602082019050610ac26000830184610a14565b92915050565b60006020820190508181036000830152610ae181610a23565b9050919050565b6000602082019050610afd6000830184610a46565b92915050565b6000819050602082019050919050565b600081519050919050565b6000602082019050919050565b600082825260208201905092915050565b600082825260208201905092915050565b6000610b5882610b75565b9050919050565b60008115159050919050565b6000819050919050565b600073ffffffffffffffffffffffffffffffffffffffff82169050919050565b6000819050919050565b6000610baa82610b95565b91507fffffffffffffffffffffffffffffffffffffffffffffffffffffffffffffffff821415610bdd57610bdc610be8565b5b600182019050919050565b7f4e487b7100000000000000000000000000000000000000000000000000000000600052601160045260246000fd5b7f43616e6e6f74207769746864726177206d6f7265207468616e2031206574686560008201527f722e000000000000000000000000000000000000000000000000000000000000602082015250565b610c6f81610b4d565b8114610c7a57600080fd5b50565b610c8681610b95565b8114610c9157600080fd5b5056fea2646970667358221220dbbf9b4b0646ba03e90c5075d845df868aae7c863bffb85ceb1f0d3617e2867264736f6c63430008040033",
  "immutableReferences": {},
  "source": "// SPDX-License-Identifier: MIT\r\npragma solidity >=0.4.22 <0.9.0;\r\n\r\nimport \"./OnlyOwner.sol\";\r\nimport \"./Logger.sol\";\r\nimport \"./IFaucet.sol\";\r\nimport \"./OnlyAdmin.sol\";\r\n\r\ncontract Faucet is OnlyOwner, Logger, IFaucet, OnlyAdmin {\r\n\r\n    uint public numOfFunders;\r\n    mapping(address => bool) public funders;\r\n    mapping(uint => address) public lutFunders;\r\n\r\n    receive() external payable {\r\n\r\n    }\r\n\r\n    modifier mustBeBelow(uint withdrawAmount) {\r\n        require(withdrawAmount <= 1000000000000000000, \"Cannot withdraw more than 1 ether.\");\r\n        _;\r\n    }\r\n\r\n    function emitLog() external override pure returns(bytes32) {\r\n        return \"Stefan\";\r\n    }\r\n\r\n    function addFunds() override external payable {\r\n        address funder = msg.sender;\r\n\r\n        if(!funders[funder]) {\r\n            uint index = numOfFunders++;\r\n            funders[funder] = true;\r\n            lutFunders[index] = funder;\r\n        }\r\n    }\r\n\r\n    function withdrawFunds(uint withdrawAmount) override external mustBeBelow(withdrawAmount) onlyAdmin {\r\n        payable(msg.sender).transfer(withdrawAmount);\r\n    }\r\n\r\n    function getAllFunders() external view returns(address[] memory) {\r\n        address[] memory _funders = new address[] (numOfFunders);\r\n\r\n        for(uint i = 0; i < numOfFunders; i++) {\r\n            _funders[i] = lutFunders[i];\r\n        }\r\n\r\n        return _funders;\r\n    }\r\n\r\n    function getFunderAtIndex(uint index) external view returns(address) {\r\n        return lutFunders[index];\r\n    }\r\n}",
  "sourcePath": "C:\\Users\\kaitl\\OneDrive\\Desktop\\PROJECTS\\ethereum-faucet\\contracts\\FaucetContract.sol",
  "compiler": {
    "name": "solc",
    "version": "0.8.4+commit.c7e474f2.Emscripten.clang"
  },
  "schemaVersion": "3.4.3",
  "updatedAt": "2022-03-01T18:55:16.102Z",
  "networkType": "ethereum",
  "devdoc": {
    "kind": "dev",
    "methods": {},
    "version": 1
  },
  "userdoc": {
    "kind": "user",
    "methods": {},
    "version": 1
  }
}