{
  "contractName": "Faucet",
  "abi": [
    {
      "inputs": [
        {
          "internalType": "address",
          "name": "",
          "type": "address"
        }
      ],
      "name": "funders",
      "outputs": [
        {
          "internalType": "bool",
          "name": "",
          "type": "bool"
        }
      ],
      "stateMutability": "view",
      "type": "function",
      "constant": true
    },
    {
      "inputs": [
        {
          "internalType": "uint256",
          "name": "",
          "type": "uint256"
        }
      ],
      "name": "lutFunders",
      "outputs": [
        {
          "internalType": "address",
          "name": "",
          "type": "address"
        }
      ],
      "stateMutability": "view",
      "type": "function",
      "constant": true
    },
    {
      "inputs": [],
      "name": "numOfFunders",
      "outputs": [
        {
          "internalType": "uint256",
          "name": "",
          "type": "uint256"
        }
      ],
      "stateMutability": "view",
      "type": "function",
      "constant": true
    },
    {
      "inputs": [],
      "name": "owner",
      "outputs": [
        {
          "internalType": "address",
          "name": "",
          "type": "address"
        }
      ],
      "stateMutability": "view",
      "type": "function",
      "constant": true
    },
    {
      "inputs": [],
      "name": "test3",
      "outputs": [
        {
          "internalType": "uint256",
          "name": "",
          "type": "uint256"
        }
      ],
      "stateMutability": "pure",
      "type": "function",
      "constant": true
    },
    {
      "inputs": [
        {
          "internalType": "address",
          "name": "newOwner",
          "type": "address"
        }
      ],
      "name": "transferOwnership",
      "outputs": [],
      "stateMutability": "nonpayable",
      "type": "function"
    },
    {
      "stateMutability": "payable",
      "type": "receive",
      "payable": true
    },
    {
      "inputs": [],
      "name": "emitLog",
      "outputs": [
        {
          "internalType": "bytes32",
          "name": "",
          "type": "bytes32"
        }
      ],
      "stateMutability": "pure",
      "type": "function",
      "constant": true
    },
    {
      "inputs": [],
      "name": "addFunds",
      "outputs": [],
      "stateMutability": "payable",
      "type": "function",
      "payable": true
    },
    {
      "inputs": [
        {
          "internalType": "uint256",
          "name": "withdrawAmount",
          "type": "uint256"
        }
      ],
      "name": "withdrawFunds",
      "outputs": [],
      "stateMutability": "nonpayable",
      "type": "function"
    },
    {
      "inputs": [],
      "name": "getAllFunders",
      "outputs": [
        {
          "internalType": "address[]",
          "name": "",
          "type": "address[]"
        }
      ],
      "stateMutability": "view",
      "type": "function",
      "constant": true
    },
    {
      "inputs": [
        {
          "internalType": "uint256",
          "name": "index",
          "type": "uint256"
        }
      ],
      "name": "getFunderAtIndex",
      "outputs": [
        {
          "internalType": "address",
          "name": "",
          "type": "address"
        }
      ],
      "stateMutability": "view",
      "type": "function",
      "constant": true
    }
  ],
  "bytecode": "0x608060405234801561001057600080fd5b50336000806101000a81548173ffffffffffffffffffffffffffffffffffffffff021916908373ffffffffffffffffffffffffffffffffffffffff1602179055506103e8600181905550610b46806100696000396000f3fe6080604052600436106100a05760003560e01c80638da5cb5b116100645780638da5cb5b146101a5578063a26759cb146101d0578063af7f2c9b146101da578063c218deca14610205578063f2fde38b14610242578063f42c13bf1461026b576100a7565b8063031b3677146100ac5780630a8e8e01146100e9578063155dd5ee146101145780631f8947ea1461013d5780636fbbb55d1461017a576100a7565b366100a757005b600080fd5b3480156100b857600080fd5b506100d360048036038101906100ce919061079b565b610296565b6040516100e0919061090e565b60405180910390f35b3480156100f557600080fd5b506100fe6102b6565b60405161010b9190610964565b60405180910390f35b34801561012057600080fd5b5061013b600480360381019061013691906107c4565b6102bf565b005b34801561014957600080fd5b50610164600480360381019061015f91906107c4565b6103ae565b60405161017191906108d1565b60405180910390f35b34801561018657600080fd5b5061018f6103e1565b60405161019c91906108ec565b60405180910390f35b3480156101b157600080fd5b506101ba610527565b6040516101c791906108d1565b60405180910390f35b6101d861054b565b005b3480156101e657600080fd5b506101ef61066b565b6040516101fc9190610964565b60405180910390f35b34801561021157600080fd5b5061022c600480360381019061022791906107c4565b610671565b60405161023991906108d1565b60405180910390f35b34801561024e57600080fd5b506102696004803603810190610264919061079b565b6106ae565b005b34801561027757600080fd5b50610280610749565b60405161028d9190610929565b60405180910390f35b60036020528060005260406000206000915054906101000a900460ff1681565b60006064905090565b80670de0b6b3a764000081111561030b576040517f08c379a000000000000000000000000000000000000000000000000000000000815260040161030290610944565b60405180910390fd5b60008054906101000a900473ffffffffffffffffffffffffffffffffffffffff1673ffffffffffffffffffffffffffffffffffffffff163373ffffffffffffffffffffffffffffffffffffffff161461036357600080fd5b3373ffffffffffffffffffffffffffffffffffffffff166108fc839081150290604051600060405180830381858888f193505050501580156103a9573d6000803e3d6000fd5b505050565b60046020528060005260406000206000915054906101000a900473ffffffffffffffffffffffffffffffffffffffff1681565b6060600060025467ffffffffffffffff811115610427577f4e487b7100000000000000000000000000000000000000000000000000000000600052604160045260246000fd5b6040519080825280602002602001820160405280156104555781602001602082028036833780820191505090505b50905060005b60025481101561051f576004600082815260200190815260200160002060009054906101000a900473ffffffffffffffffffffffffffffffffffffffff168282815181106104d2577f4e487b7100000000000000000000000000000000000000000000000000000000600052603260045260246000fd5b602002602001019073ffffffffffffffffffffffffffffffffffffffff16908173ffffffffffffffffffffffffffffffffffffffff1681525050808061051790610a1b565b91505061045b565b508091505090565b60008054906101000a900473ffffffffffffffffffffffffffffffffffffffff1681565b6000339050600360008273ffffffffffffffffffffffffffffffffffffffff1673ffffffffffffffffffffffffffffffffffffffff16815260200190815260200160002060009054906101000a900460ff16610668576000600260008154809291906105b690610a1b565b9190505590506001600360008473ffffffffffffffffffffffffffffffffffffffff1673ffffffffffffffffffffffffffffffffffffffff16815260200190815260200160002060006101000a81548160ff021916908315150217905550816004600083815260200190815260200160002060006101000a81548173ffffffffffffffffffffffffffffffffffffffff021916908373ffffffffffffffffffffffffffffffffffffffff160217905550505b50565b60025481565b60006004600083815260200190815260200160002060009054906101000a900473ffffffffffffffffffffffffffffffffffffffff169050919050565b60008054906101000a900473ffffffffffffffffffffffffffffffffffffffff1673ffffffffffffffffffffffffffffffffffffffff163373ffffffffffffffffffffffffffffffffffffffff161461070657600080fd5b806000806101000a81548173ffffffffffffffffffffffffffffffffffffffff021916908373ffffffffffffffffffffffffffffffffffffffff16021790555050565b60007f53746566616e0000000000000000000000000000000000000000000000000000905090565b60008135905061078081610ae2565b92915050565b60008135905061079581610af9565b92915050565b6000602082840312156107ad57600080fd5b60006107bb84828501610771565b91505092915050565b6000602082840312156107d657600080fd5b60006107e484828501610786565b91505092915050565b60006107f98383610805565b60208301905092915050565b61080e816109c9565b82525050565b61081d816109c9565b82525050565b600061082e8261098f565b61083881856109a7565b93506108438361097f565b8060005b8381101561087457815161085b88826107ed565b97506108668361099a565b925050600181019050610847565b5085935050505092915050565b61088a816109db565b82525050565b610899816109e7565b82525050565b60006108ac6022836109b8565b91506108b782610a93565b604082019050919050565b6108cb81610a11565b82525050565b60006020820190506108e66000830184610814565b92915050565b600060208201905081810360008301526109068184610823565b905092915050565b60006020820190506109236000830184610881565b92915050565b600060208201905061093e6000830184610890565b92915050565b6000602082019050818103600083015261095d8161089f565b9050919050565b600060208201905061097960008301846108c2565b92915050565b6000819050602082019050919050565b600081519050919050565b6000602082019050919050565b600082825260208201905092915050565b600082825260208201905092915050565b60006109d4826109f1565b9050919050565b60008115159050919050565b6000819050919050565b600073ffffffffffffffffffffffffffffffffffffffff82169050919050565b6000819050919050565b6000610a2682610a11565b91507fffffffffffffffffffffffffffffffffffffffffffffffffffffffffffffffff821415610a5957610a58610a64565b5b600182019050919050565b7f4e487b7100000000000000000000000000000000000000000000000000000000600052601160045260246000fd5b7f43616e6e6f74207769746864726177206d6f7265207468616e2031206574686560008201527f722e000000000000000000000000000000000000000000000000000000000000602082015250565b610aeb816109c9565b8114610af657600080fd5b50565b610b0281610a11565b8114610b0d57600080fd5b5056fea2646970667358221220e35bbeac8e881695fb9cf2f86cbd4cb57fb6243b7edd5523380cabf89f5ac13a64736f6c63430008040033",
  "immutableReferences": {},
  "source": "// SPDX-License-Identifier: MIT\r\npragma solidity >=0.4.22 <0.9.0;\r\n\r\nimport \"./OnlyOwner.sol\";\r\nimport \"./Logger.sol\";\r\nimport \"./IFaucet.sol\";\r\n\r\ncontract Faucet is OnlyOwner, Logger, IFaucet {\r\n\r\n    uint public numOfFunders;\r\n    mapping(address => bool) public funders;\r\n    mapping(uint => address) public lutFunders;\r\n\r\n    receive() external payable {\r\n\r\n    }\r\n\r\n    modifier mustBeBelow(uint withdrawAmount) {\r\n        require(withdrawAmount <= 1000000000000000000, \"Cannot withdraw more than 1 ether.\");\r\n        _;\r\n    }\r\n\r\n    function emitLog() external override pure returns(bytes32) {\r\n        return \"Stefan\";\r\n    }\r\n\r\n    function addFunds() override external payable {\r\n        address funder = msg.sender;\r\n\r\n        if(!funders[funder]) {\r\n            uint index = numOfFunders++;\r\n            funders[funder] = true;\r\n            lutFunders[index] = funder;\r\n        }\r\n    }\r\n\r\n    function withdrawFunds(uint withdrawAmount) override external mustBeBelow(withdrawAmount) onlyOwner {\r\n        payable(msg.sender).transfer(withdrawAmount);\r\n    }\r\n\r\n    function getAllFunders() external view returns(address[] memory) {\r\n        address[] memory _funders = new address[] (numOfFunders);\r\n\r\n        for(uint i = 0; i < numOfFunders; i++) {\r\n            _funders[i] = lutFunders[i];\r\n        }\r\n\r\n        return _funders;\r\n    }\r\n\r\n    function getFunderAtIndex(uint index) external view returns(address) {\r\n        return lutFunders[index];\r\n    }\r\n}",
  "sourcePath": "C:\\Users\\kaitl\\OneDrive\\Desktop\\PROJECTS\\ethereum-faucet\\contracts\\FaucetContract.sol",
  "compiler": {
    "name": "solc",
    "version": "0.8.4+commit.c7e474f2.Emscripten.clang"
  },
  "schemaVersion": "3.4.3",
  "updatedAt": "2022-03-01T04:14:37.514Z",
  "networkType": "ethereum",
  "devdoc": {
    "kind": "dev",
    "methods": {},
    "version": 1
  },
  "userdoc": {
    "kind": "user",
    "methods": {},
    "version": 1
  }
}