{
  "contractName": "OnlyAdmin",
  "abi": [
    {
      "inputs": [
        {
          "internalType": "uint256",
          "name": "",
          "type": "uint256"
        }
      ],
      "name": "admins",
      "outputs": [
        {
          "internalType": "address",
          "name": "",
          "type": "address"
        }
      ],
      "stateMutability": "view",
      "type": "function"
    }
  ],
  "bytecode": "0x60806040526040518060400160405280738c0e055ca0e597df9755a65e3ded35b20ec49fe773ffffffffffffffffffffffffffffffffffffffff1673ffffffffffffffffffffffffffffffffffffffff168152602001732c5547ec5841ec00477b3b18d3dbcf6090bc255b73ffffffffffffffffffffffffffffffffffffffff1673ffffffffffffffffffffffffffffffffffffffff1681525060009060026100a99291906100bc565b503480156100b657600080fd5b50610163565b828054828255906000526020600020908101928215610135579160200282015b828111156101345782518260006101000a81548173ffffffffffffffffffffffffffffffffffffffff021916908373ffffffffffffffffffffffffffffffffffffffff160217905550916020019190600101906100dc565b5b5090506101429190610146565b5090565b5b8082111561015f576000816000905550600101610147565b5090565b610190806101726000396000f3fe608060405234801561001057600080fd5b506004361061002b5760003560e01c806314bfd6d014610030575b600080fd5b61004a600480360381019061004591906100b4565b610060565b60405161005791906100ec565b60405180910390f35b6000818154811061007057600080fd5b906000526020600020016000915054906101000a900473ffffffffffffffffffffffffffffffffffffffff1681565b6000813590506100ae81610143565b92915050565b6000602082840312156100c657600080fd5b60006100d48482850161009f565b91505092915050565b6100e681610107565b82525050565b600060208201905061010160008301846100dd565b92915050565b600061011282610119565b9050919050565b600073ffffffffffffffffffffffffffffffffffffffff82169050919050565b6000819050919050565b61014c81610139565b811461015757600080fd5b5056fea2646970667358221220bf834208fc47d66cf35b2d6ea4db78be12ad8d70947869b8af38600277a940b764736f6c63430008040033",
  "immutableReferences": {},
  "source": "// SPDX-License-Identifier: MIT\r\npragma solidity >=0.4.22 <0.9.0;\r\n\r\ncontract OnlyAdmin {\r\n    address[] public admins = [0x8c0E055CA0E597DF9755a65e3dED35B20EC49Fe7, 0x2c5547eC5841Ec00477b3b18D3DBCf6090BC255b];\r\n\r\n    modifier onlyAdmin{\r\n        bool isAdmin = false;\r\n\r\n        if(msg.sender == admins[0]) {\r\n            isAdmin = true;\r\n        } else if(msg.sender == admins[1]) {\r\n            isAdmin = true;\r\n        }\r\n\r\n        require(isAdmin == true);\r\n        _;\r\n    }\r\n}",
  "sourcePath": "C:\\Users\\kaitl\\OneDrive\\Desktop\\PROJECTS\\ethereum-faucet\\contracts\\OnlyAdmin.sol",
  "compiler": {
    "name": "solc",
    "version": "0.8.4+commit.c7e474f2.Emscripten.clang"
  },
  "schemaVersion": "3.4.3",
  "updatedAt": "2022-03-01T18:55:09.109Z",
  "devdoc": {
    "kind": "dev",
    "methods": {},
    "version": 1
  },
  "userdoc": {
    "kind": "user",
    "methods": {},
    "version": 1
  }
}